:020000040800F2
:100000008807002089010008E3100008DB100008C1
:10001000DF100008850200089512000800000000AB
:1000200000000000000000000000000011110008A6
:100030008902000800000000E51000081311000804
:10004000A3010008A3010008A3010008A301000800
:10005000A3010008A3010008A3010008A3010008F0
:10006000A3010008A3010008A3010008A3010008E0
:10007000A3010008A3010008A3010008A3010008D0
:10008000A3010008A3010008A3010008A3010008C0
:10009000A3010008A3010008A3010008A3010008B0
:1000A000A3010008A3010008A3010008A3010008A0
:1000B000A3010008A3010008A3010008A301000890
:1000C000A3010008A3010008A3010008A301000880
:1000D000A301000871120008A3010008A301000891
:1000E000A3010008A3010008A301000800F002F822
:1000F00000F03AF80AA090E8000C82448344AAF188
:100100000107DA4501D100F02FF8AFF2090EBAE885
:100110000F0013F0010F18BFFB1A43F0010318473B
:100120006413000084130000103A24BF78C878C11B
:10013000FAD8520724BF30C830C144BF04680C60ED
:10014000704700000023002400250026103A28BF35
:1001500078C1FBD8520728BF30C148BF0B60704739
:100160001FB51FBD10B510BD00F05AF81146FFF7BE
:10017000F7FF01F027F900F078F803B4FFF7F2FF7A
:1001800003BC01F0A5F80000094880470948004772
:10019000FEE7FEE7FEE7FEE7FEE7FEE7FEE7FEE737
:1001A000FEE7FEE704480549054A064B7047000094
:1001B0001B110008ED0000088801002088070020BE
:1001C000880300208803002070474FF0000200B52C
:1001D000134694469646203922BFA0E80C50A0E86A
:1001E0000C50B1F12001BFF4F7AF090728BFA0E818
:1001F0000C5048BF0CC05DF804EB890028BF40F8E4
:10020000042B08BF704748BF20F8022B11F0804F25
:1002100018BF00F8012B7047704770477047704750
:10022000754600F02BF8AE4605006946534620F0AF
:100230000700854618B020B5FFF7B4FFBDE82040A1
:100240004FF000064FF000074FF000084FF0000B92
:1002500021F00701AC46ACE8C009ACE8C009ACE845
:10026000C009ACE8C0098D46704710B50446AFF32D
:1002700000802046BDE81040FFF77FBF0048704770
:100280002401002000BFFEE77047000070B504465F
:10029000002594F82100022803D00420A063012542
:1002A00048E02068006820F00E002168086020689F
:1002B000006820F00100216808601F49206888421A
:1002C00001D1012026E01C4914312068884201D167
:1002D00010201FE0184928312068884201D180157C
:1002E00018E015493C312068884201D1801411E0A2
:1002F000114950312068884202D14FF4803009E022
:100300000D4964312068884202D14FF4801001E029
:100310004FF08070084908394860012084F82100B6
:1003200000BF002084F8200000BF606B10B12046A1
:10033000616B8847284670BD080002402DE9F847E8
:100340000346002294466EE14FF0010808FA02F4D9
:10035000D1F8008008EA0400A0427DD1DFF8DCA2D9
:10036000D1F80480A8EB0A09D0453AD014DCB8F1E2
:10037000030F50D009DCB8F1000F31D0B8F1010FF4
:100380001CD0B8F1020F49D120E0B8F1110F18D0FC
:10039000B8F1120F42D11EE0B9F5881F25D006DC56
:1003A000B9F5803F20D0B9F5801F37D11AE0B9F5F3
:1003B000001F18D0B9F5041F30D117E0D1F80CC0D8
:1003C0002DE0D1F80C8008F1040C28E0D1F80C8065
:1003D00008F1080C23E0D1F80C8008F10C0C1EE0A9
:1003E00000BF00BF00BF00BF00BF00BFD1F8088042
:1003F000B8F1000F02D14FF0040C0BE0D1F80880E7
:10040000B8F1010F03D14FF0080C1C6102E04FF06E
:10041000080C5C6103E04FF0000C00E000BF00BF7F
:10042000FF2801D8984601E003F104084646FF285A
:1004300002D84FEA820803E0A2F108084FEA8808D0
:100440004746D6F800804FF00F0909FA07F928EA65
:1004500009080CFA07F900E088E048EA0908C6F83C
:100460000080D1F8048008F08058B8F1805F7DD119
:1004700000BFDFF8CC81D8F8188048F00108DFF819
:10048000C091C9F81880C846D8F8188008F001084B
:10049000CDF8008000BF00BF4FEAB9384FEA92099B
:1004A00058F829504FEA82784FEA18794FF00F0830
:1004B00008FA09F825EA0805DFF88881434502D1E2
:1004C0004FF0000816E0DFF88081434502D14FF07D
:1004D00001080FE0DFF87481434502D14FF00208B4
:1004E00008E0DFF86C81434502D14FF0030801E0DA
:1004F0004FF004084FEA82794FEA197908FA09F8AF
:1005000048EA0505DFF84C814FEA920948F829507E
:10051000D1F8048008F48038B8F5803F0AD1DFF8BC
:100520003881D8F8008048EA0008DFF82C91C9F833
:10053000008009E0DFF82081D8F8008028EA000870
:10054000DFF81491C9F80080D1F8048008F400386D
:10055000B8F5003F10D1DFF8008108F10408D8F8A1
:10056000008048EA0008DFF8F09000E05AE009F166
:100570000409C9F800800DE0DFF8DC8008F1040808
:10058000D8F8008028EA0008DFF8CC9009F10409C7
:10059000C9F80080D1F8048008F48018B8F5801FED
:1005A0000ED1DFF8B48008F10808D8F8008048EAD6
:1005B0000008DFF8A49009F10809C9F800800DE0EF
:1005C000DFF8948008F10808D8F8008028EA0008CD
:1005D000DFF8849009F10809C9F80080D1F8048097
:1005E00008F40018B8F5001F0ED1DFF86C8008F190
:1005F0000C08D8F8008048EA0008DFF85C9009F1A0
:100600000C09C9F800800DE0DFF84C8008F10C08F7
:10061000D8F8008028EA0008DFF83C9009F10C09BE
:10062000C9F80080521CD1F8008028FA02F8B8F10D
:10063000000F7FF489AEBDE8F887000000001110BC
:100640000010024000080140000C01400010014071
:100650000014014008000140000401400AB101619A
:1006600001E00B0403617047014800687047000017
:100670001000002003480068034909780844014934
:1006800008607047100000201800002010B50848CE
:10069000006840F0100006490860052000F070F87E
:1006A0000F2000F007F800F02BF8002010BD00002C
:1006B0000020024070B504460E4800784FF47A716D
:1006C000B1FBF0F00C490968B1FBF0F5284600F0E9
:1006D000C1FB08B1012070BD102C07D200222146B9
:1006E000501E00F00EF80548046001E00120F2E71A
:1006F0000020F0E718000020000000201400002077
:1007000070472DE9F05F80460D461646002700F041
:10071000C3FD074639462A46334601F00700C0F1BB
:10072000070ABAF1040F02D94FF0040A01E0C0F140
:10073000070AD14600F1040ABAF1070F02D24FF0BE
:10074000000A01E0A0F1030AD4464FF0010A0AFAB8
:1007500009FAAAF1010A0AEA020A0AFA0CFA4FF0A7
:10076000010B0BFA0CFBABF1010B0BEA030B4AEA92
:100770000B042146404600F097FDBDE8F09F0000C5
:1007800000BF00F00702064B19684FF6FF0319403F
:10079000044B0B4343EA0221014B196000BF704731
:1007A0000CED00E00000FA0570B504460D460CB9EA
:1007B000012070BD5A48006800F00700A8420ED220
:1007C0005748006820F0070028435549086008464C
:1007D000006800F00700A84201D00120E9E7207876
:1007E00000F0020002281DD1207800F00400042847
:1007F00005D14C48406840F4E0604A4948602078A0
:1008000000F00800082805D14648406840F46050D0
:10081000444948604348406820F0F000A16808431C
:1008200040494860207800F0010078B360680128F2
:1008300006D13C48006800F4003090B90120B8E7C8
:100840006068022806D13748006800F0007040B99F
:100850000120AEE73348006800F0020008B901202B
:10086000A7E73048406820F00300616808432D493D
:100870004860FFF7F9FE064609E0FFF7F5FE801B2A
:1008800041F28831884202D9032092E707E02548E7
:10089000406800F00C006168B0EB810FEDD120489A
:1008A000006800F00700A8420ED91D48006820F03B
:1008B000070028431A4908600846006800F007004E
:1008C000A84201D0012074E7207800F00400042839
:1008D00007D11448406820F4E060E16808431149FA
:1008E0004860207800F00800082808D10D484068CA
:1008F00020F46050216940EAC1000A49486000F0D4
:1009000019F808494968C1F30311074A515CC84006
:100910000649086006480068FFF7CCFE002048E75B
:1009200000200240001002406A140008000000206D
:1009300014000020F0B585B00FF26C0C9CE8E010BC
:1009400001A8A0E8E0101CA52D6800950021002258
:10095000002300240020194D696801F00C05F5B151
:10096000042D02D0082D19D101E0154819E001AD80
:10097000C1F38346AC5D01F4803555B10F4D6D6810
:10098000C5F340451DF805200D4D6543B5FBF2F359
:1009900002E00C4D04FB05F3184602E000BF0848D6
:1009A00000BF00BF05B0F0BD02030405060708093B
:1009B0000A0B0C0D0E0F1010010200000010024077
:1009C00000127A0000093D00F8B504460CB9012078
:1009D000F8BD207800F00100002878D0F848406881
:1009E00000F00C0004280CD0F548406800F00C0022
:1009F000082811D1F248406800F48030B0F5803FFB
:100A00000AD1EF48006800F4003000285FD0606829
:100A100000285CD10120DBE700BF6068B0F5803FB3
:100A200006D1E748006840F48030E549086028E0D6
:100A3000606858B9E248006820F48030E0490860F6
:100A40000846006820F4802008601AE06068B0F56D
:100A5000A02F0BD1DA48006840F48020D849086004
:100A60000846006840F4803008600AE0D448006816
:100A700020F48030D24908600846006820F48020C5
:100A8000086000BF606888B1FFF7EEFD054606E02C
:100A9000FFF7EAFD401B642801D9032098E7C84806
:100AA000006800F400300028F2D010E0FFF7DCFD11
:100AB000054606E0FFF7D8FD401B642801D9032056
:100AC00086E7BF48006800F400300028F2D12078A3
:100AD00000F00200022857D1B948406800F00C002D
:100AE00050B1B748406800F00C00082818D1B4484D
:100AF000406800F4803098B9B148006800F0020006
:100B000020B12069012801D0012061E7AC480068CC
:100B100020F0F800616940EAC100A949086033E0AB
:100B20002069E8B10120A7490860FFF79DFD05464F
:100B300006E0FFF799FD401B022801D9032047E793
:100B40009F48006800F002000028F2D09C4800682E
:100B500020F0F800616940EAC1009949086013E09B
:100B6000002098490860FFF77FFD054606E0FFF783
:100B70007BFD401B022801D9032029E7904800682B
:100B800000F002000028F2D1207800F008000828C8
:100B90002DD1A069B8B101208B490860FFF764FD31
:100BA000054606E0FFF760FD401B022801D903203F
:100BB0000EE78348406A00F002000028F2D00120CE
:100BC00000F092FA13E000207F490860FFF74CFD27
:100BD000054606E0FFF748FD401B022801D9032027
:100BE000F6E67748406A00F002000028F2D120784B
:100BF00000F00400042873D100277148C06900F098
:100C0000805070B900BF6E48C06940F080506C4998
:100C1000C8610846C06900F08050009000BF00BF66
:100C200001276A48006800F48070B0B9674800681E
:100C300040F4807065490860FFF716FD054606E040
:100C4000FFF712FD401B642801D90320C0E65F486E
:100C5000006800F480700028F2D000BFE06801282E
:100C600006D15748006A40F001005549086227E064
:100C7000E06858B95248006A20F001005049086203
:100C80000846006A20F00400086219E0E0680528C0
:100C90000BD14B48006A40F00400494908620846FD
:100CA000006A40F0010008620AE04548006A20F04E
:100CB0000100434908620846006A20F00400086207
:100CC00000BFE068A0B1FFF7CFFC054609E0FFF7E1
:100CD000CBFC401B41F28831884202D9032077E6E1
:100CE00022E03748006A00F002000028EFD012E04E
:100CF000FFF7BAFC054608E0FFF7B6FC401B41F2DF
:100D00008831884201D9032062E62D48006A00F04C
:100D100002000028F0D1012F05D12948C06920F038
:100D200080502749C86100BFE069C8B324484068C3
:100D300000F00C00082860D0E069022848D10020AB
:100D400020490866FFF790FC054606E0FFF78CFC9B
:100D5000401B022801D903203AE61948006800F038
:100D600000700028F2D1206AB0F5803F07D1144806
:100D7000406820F40030A168084311494860D4E974
:100D8000080108430E49496821F4741108430C49CD
:100D9000486001200B490866FFF766FC054607E03E
:100DA0003DE0FFF761FC401B022801D903200FE65C
:100DB0000348006800F000700028F2D02FE0000027
:100DC0000010024000004242800442420070004095
:100DD000002014490866FFF747FC054606E0FFF7C8
:100DE00043FC401B022801D90320F1E50E480068AE
:100DF00000F000700028F2D111E0E069012800D174
:100E0000E6E50948466806F48031206A814204D14B
:100E100006F47011606A814201D00120D8E50020FB
:100E2000D6E500000000424200100240042808D12C
:100E30004FF0E021096941F004014FF0E022116117
:100E400007E04FF0E021096921F004014FF0E022B2
:100E50001161704770B504462546681EB0F1807F69
:100E600001D301200FE0681E4FF0E02148610F21FF
:100E70004FF0FF3000F018FA00204FF0E0218861B9
:100E800007200861002070BD704700002DE9F04781
:100E90000446206805682068C668206847694FF0E6
:100EA0000008C14605F00F08B8F1000F0AD105F09F
:100EB000200038B106F0200020B1204600F058F99B
:100EC000BDE8F087B8F1000F71D007F0010018B944
:100ED00006F4907000286AD005F0010030B106F4E5
:100EE000807018B1E06B40F00100E06305F0040091
:100EF00030B107F0010018B1E06B40F00200E06390
:100F000005F0020030B107F0010018B1E06B40F0CD
:100F10000400E06305F0080048B106F0200010B9B5
:100F200007F0010018B1E06B40F00800E063E06BEF
:100F300068B305F0200028B106F0200010B120466B
:100F400000F016F920684069C0F38019E06B00F0EA
:100F5000080010B9B9F1000F22D0204600F0E8F8DF
:100F60002068406900F04000B0B12068406920F07E
:100F7000400021684861606B50B11848616B48635C
:100F8000606BFFF783F910B1606B416B88470CE031
:100F90002046FFF779FF08E02046FFF775FF04E0E1
:100FA0002046FFF771FF0020E06389E7FFE705F0C7
:100FB000800030B106F0800018B1204600F028F91A
:100FC0007EE705F0400030B106F0400018B1204641
:100FD00000F0BEF874E700BF72E700001D110008C2
:100FE00010B5034693F83A0020282FD101B10AB971
:100FF000012010BD00BF93F83800012801D1022064
:10100000F7E7012083F8380000BF99629A85DA85F6
:101010000020D863222083F83A0000BF002083F824
:10102000380000BF1868C06840F480701C68E06039
:101030001868406940F001001C6860611868C06869
:1010400040F020001C68E0600020D2E70220D0E7DA
:101050001D4A0168914236D11C49098801F40041BA
:1010600089BB1A49098801F4804171B1184909788E
:101070000A2903D00021154A118024E01349098868
:1010800041F40041114A11801DE0114909780D29F0
:1010900006D10E49098841F480410C4A118012E0C2
:1010A0000B490978094A1288C2F30D02094B995479
:1010B00006490988491C054A118011460988C72933
:1010C00001DD002111807047003801400C00002034
:1010D0000E0000201C000020704700BFFEE700BF8C
:1010E000FEE770477047000008B508490968C9085D
:1010F0004FF47A72B1FBF2F14143009100BF00BF9F
:1011000000994A1E00920029F9D108BD0000002074
:10111000704710B5FFF7AEFA10BD704770B50546C1
:101120006C6A0020E085E0842046FFF7ADFE70BDCC
:101130000168C96821F490710268D1600168496949
:1011400021F0010102685161202180F83A107047B6
:1011500010B504462068C06820F040002168C860CF
:10116000202084F839002046FFF7B6FF002010BD8C
:1011700070B5044694F83A00222847D1A068B0F52B
:10118000805F0CD1206950B90025A66A20684068AC
:10119000C0F308003080A06A801CA06215E0A56A38
:1011A0000026A068B0F5805F03D0A06828B9206948
:1011B00018B920684068287004E02068406800F092
:1011C0007F002870A06A401CA062E08D401E80B2A3
:1011D000E085C8B92068C06820F020002168C86098
:1011E0002068C06820F480702168C8602068406969
:1011F00020F0010021684861202084F83A00204650
:10120000FFF726FF002070BD0020FCE70220FAE770
:10121000014691F83900212828D18868B0F5805F0F
:101220000BD1086948B90A6A1088C0F308000B6836
:101230005860086A801C086205E00B6A581C086246
:1012400018780B685860C88C401E80B2C88458B9A2
:101250000868C06820F080000B68D8600868C06823
:1012600040F040000B68D860002070470220FCE787
:1012700010B50648FFF70AFE00BF012204490348E3
:10128000FFF7AEFE0028F8D110BD0000E4000020FA
:101290000E00002000BFFEE702480068C0F30220F5
:1012A000704700000CED00E010B5002804DB0A07D1
:1012B000130E054A135406E00A07140E034A00F001
:1012C0000F031B1FD45410BD00E400E018ED00E034
:1012D00000BF704710B5044600204FF0E0210861C0
:1012E000FFF7A4FD2046E11704EB5171C1F3CF01D4
:1012F000014A118010BD00000400002070B50446B2
:101300004FF47A7094FBF0F594FBF0F100FB11467A
:1013100003E0074800F00EF86D1E002DF9D12EB144
:101320004FF47A7106FB01F000F004F870BD000084
:1013300040420F000146114A12884A434FF0E02311
:101340005A6100229A611A46126942F001021A613A
:1013500000BF4FF0E022106900F001021AB100F462
:101360008032002AF5D04FF0E022126922F001020B
:101370004FF0E0231A6100229A61704704000020B8
:1013800000B585B000BF0D48806940F010000B49E2
:1013900088610846806900F01000009000BF00BF1F
:1013A0004FF400500190012002900390032004901C
:1013B00001A90348FEF7C2FF05B000BD00100240BE
:1013C00000100140FFF762F94FF4E01000F01AF846
:1013D0004820FFF77FFFFFF7D3FF10E00122510302
:1013E0000748FFF73BF96420FFF788FF00224FF41E
:1013F00000510348FFF732F96420FFF77FFFEDE764
:101400000010014030B58FB005460124282105A801
:10141000FEF7DBFE14216846FEF7D7FE012005909B
:10142000000406900020079002200C90C1030D914B
:101430000E9505A8FFF7C8FA04460CB100BFFEE7F9
:101440000F20009002200190002002904FF4806055
:1014500003900020049002216846FFF7A5F9044696
:101460000CB100BFFEE70FB030BD0000000000006F
:101470000000010203040607080900000000010241
:1014800003040000A4140008000000201C00000059
:1014900028010008C01400081C0000206C07000090
:1014A000440100080024F4000000000000000000D7
:1014B000000000000000000010000000010000001B
:04000005080000ED02
:00000001FF
